:100000000C940B010C9433010C9433010C943301C8
:100010000C9433010C9433010C9433010C94451D62
:100020000C9433010C9433010C9433010C949E1FF7
:100030000C9433010C9433010C9433010C94330170
:100040000C94CE240C9433010C945D200C94AB20C2
:100050000C9433010C9433010C9433010C94330150
:100060000C9433010C9433010D0A2B2A2A2A2A2AD4
:100070002A2A2A2A205374757620726567756C6166
:10008000746F72202F20636F6D6D616E64206C69D8
:100090006E6520656469746F722A2A2A2A2A2A2AC0
:1000A0002A2A2A2A2A2A2A2A2B0D0A7C20546869FD
:1000B000732070726F6772616D20697320612073A5
:1000C000696D706C65206D6F6E69746F7220636FFF
:1000D0006D6D616E642068616E646C696E672E2060
:1000E0002020202020202020207C0D0A7C205479F4
:1000F0007065202768656C7027206F7220276865FF
:100100006C70203C434F4D4D414E443E27202066AD
:100110006F72206D6F726520696E666F726D6174AB
:10012000696F6E732020202020207C0D0A2B2D2D3E
:100130002D2D2D2D2D2D2D2D2D2D2D2D2D2D2D2DEF
:100140002D2D2D2D2D2D2D2D2D2D2D2D2D2D2D2DDF
:100150002D2D2D2D2D2D2D2D2D2D2D2D2D2D2D2DCF
:100160002D2D2D2D2D2D2D2D2D2D2D2B0D0A00203E
:100170004131207261773A00204130207261773A34
:10018000000A0D002C746F6B656E3D00206D7300CE
:10019000430D0A005461726765742074656D706563
:1001A0007261747572653A00000000002400270037
:1001B0002A0000000000250028002B00000000009D
:1001C0002300260029000404040404040404020299
:1001D00002020202030303030303010204081020C6
:1001E00040800102040810200102040810200000D1
:1001F00000070002010000030406000000000000E8
:1002000000006364696E6F70737578585B00C40B8F
:10021000E30D0711172211241FBECFEFD8E0DEBF78
:10022000CDBF14E0A0E0B1E0E2EAF4E502C0059041
:100230000D92A432B107D9F717E0A4E2B4E001C0EF
:100240001D92A93AB107E1F712E0C6E1D2E004C07D
:100250002297FE010E94022ACE30D107C9F70E94E0
:100260006D220C944F2A0C940000EF92FF920F9392
:10027000DF93CF93CDB7DEB760970FB6F894DEBFAC
:100280000FBECDBFA82F002309F461C07E010894E2
:10029000E11CF11C88E0F70111928A95E9F72983A6
:1002A0003A834B835C836D837E83AF83988780E240
:1002B000801BE82FFF27E7FDF0954D815E816F8160
:1002C0007885181684F01D861E861F86188A882752
:1002D00099278E1B9F0B04C0769567955795479578
:1002E0008A95D2F728C0202F332727FD3095DB01D0
:1002F000CA01022E04C0B695A795979587950A94D2
:10030000D2F78D879E87AF87B88B04C0440F551FE7
:10031000661F771FEA95D2F789819A81AB81BC81EC
:1003200004C0B695A795979587952A95D2F7482B3F
:10033000592B6A2B7B2B49875A876B877C872985AA
:100340003A854B855C856D857E85AF8598898A2F3A
:1003500060960FB6F894DEBF0FBECDBFCF91DF9190
:100360000F91FF90EF900895EF92FF920F93DF931C
:10037000CF93CDB7DEB760970FB6F894DEBF0FBE50
:10038000CDBFA82F002309F461C07E010894E11CB1
:10039000F11C88E0F70111928A95E9F729833A83E5
:1003A0004B835C836D837E83AF83988780E2801B61
:1003B000E82FFF27E7FDF09549815A816B817C8109
:1003C000181684F019861A861B861C86882799279A
:1003D0008E1B9F0B04C0440F551F661F771F8A9505
:1003E000D2F728C0202F332727FD3095DB01CA0123
:1003F000022E04C0880F991FAA1FBB1F0A94D2F7B0
:1004000089879A87AB87BC8704C07695679557958F
:100410004795EA95D2F78D819E81AF81B88504C05A
:10042000880F991FAA1FBB1F2A95D2F7482B592B5B
:100430006A2B7B2B4D875E876F87788B29853A8562
:100440004B855C856D857E85AF8598898A2F609602
:100450000FB6F894DEBF0FBECDBFCF91DF910F91E5
:10046000FF90EF90089544E254E00E944F020895F7
:10047000FB01DC018D91019080190110D9F3990BDA
:100480000895FB01DC014150504030F08D91019006
:10049000801919F40020B9F7881B990B089500976B
:1004A00031F4DA018D919C91009709F40EC0DC01C2
:1004B000FB013D912191222319F03217C9F3FACFA4
:1004C000332331F4DA011D921C928827992708956D
:1004D0001197AF93BF93FB013D912191321771F4B6
:1004E000332321F488279927119702C01E92119671
:1004F000FA01A193B0839F918F910895222369F708
:10050000EACF0F931F93CF93DF938C01EB018B8185
:1005100081FF1BC082FF0DC02E813F818C819D8198
:100520002817390764F4E881F9810193F983E88396
:1005300006C0E885F985802F0995892B31F48E81D5
:100540009F8101969F838E8302C00FEF1FEFC8012A
:10055000DF91CF911F910F910895A0E0B0E0E3EB00
:10056000F2E00C94282AFE013596619171918091F8
:10057000A5079091A607AF010E9434032096E2E000
:100580000C94442A6091A5077091A6070E948102ED
:1005900008950F931F93CF93DF938C01E091A507EC
:1005A000F091A607838181FF21C0C0E0D0E00DC09B
:1005B000E091A507F091A60720853185BF01F901DB
:1005C0000995892B11F0CFEFDFEFF80181918F01B1
:1005D000882371F7E091A507F091A6072085318562
:1005E0008AE0BF01F9010995892B11F0CFEFDFEF08
:1005F000CE01DF91CF911F910F910895AEE0B0E051
:10060000E4E0F3E00C94282A85E08C838B899C89B4
:100610009A8389839E01295E3F4FCE0101966D89A1
:100620007E89A9010E9495062E96E2E00C94442A48
:10063000AEE0B0E0EEE1F3E00C94262A8C0186E017
:100640008C831A8309838FEF9FE79E838D83CE016E
:1006500001960E943403EF81F885E00FF11F1082AC
:100660002E96E4E00C94422AABE0B0E0EAE3F3E03B
:100670000C94182A3C012B015A01FC0117821682A6
:10068000838181FD03C06FEF7FEFC6C19AE0892EA1
:100690001E010894211C311CF3012381F20123FD6A
:1006A000859123FF81912F01882309F4B2C18532FE
:1006B00039F423FD859123FF81912F01853229F49F
:1006C00090E0B3010E948102E7CF982FFF24EE242F
:1006D0009924FFE1FF15D0F09B3269F09C3228F499
:1006E000903259F0933291F40EC09D3249F090331C
:1006F00069F441E024C052E0F52A84E0F82A28C0D9
:1007000098E0F92A25C0E0E1FE2A22C0F7FC29C0C2
:10071000892F80538A3070F4F6FE05C0989C902C87
:100720001124980E15C0E89CE02C1124E80EF0E28C
:10073000FF2A0EC09E3229F4F6FC6BC140E4F42A75
:1007400007C09C3619F450E8F52A02C0983649F4DF
:10075000F20123FD959123FF91912F01992309F037
:10076000B8CF892F8554833018F08052833038F405
:1007700044E050E0A40EB51E5FE359830FC09336EA
:1007800031F0933779F0933509F056C020C0F50168
:100790008081898342E050E0A40EB51E610101E032
:1007A00010E012C0F501C080D180F6FC03C06FEFED
:1007B0007FEF02C0692D70E042E050E0A40EB51E4C
:1007C000C6010E94BC078C015FE7F52214C0F50149
:1007D000C080D180F6FC03C06FEF7FEF02C0692DAF
:1007E00070E042E050E0A40EB51EC6010E94B107C1
:1007F0008C0150E8F52AF3FE07C01AC080E290E0B1
:10080000B3010E948102EA948E2D90E00817190727
:10081000A8F30EC0F601F7FC8591F7FE81916F01F8
:1008200090E0B3010E948102E110EA94015010406F
:100830000115110579F7EAC0943611F0993669F57A
:10084000F7FE08C0F501208131814281538184E0A7
:1008500090E00AC0F501808191819C01442737FD19
:100860004095542F82E090E0A80EB91E9FE6F92231
:1008700057FF09C050954095309521953F4F4F4FF8
:100880005F4FE0E8FE2ACA01B901A1012AE030E089
:100890000E942308D82ED21840C0953729F41F2D66
:1008A0001F7E2AE030E01DC01F2D197F9F3661F0AA
:1008B000903720F4983509F0ACC00FC0903739F06C
:1008C000983709F0A6C004C028E030E00AC01061E3
:1008D00014FD146020E130E004C014FD166020E136
:1008E00032E017FF08C0F501608171818281938138
:1008F00044E050E008C0F50180819181BC0180E0B6
:1009000090E042E050E0A40EB51EA1010E94230831
:10091000D82ED2188FE7F82EF122F6FE0BC05EEF2C
:10092000F522D91438F4F4FE07C0F2FC05C08FEEAE
:10093000F82202C01D2D01C0192DF4FE0DC0FE01CC
:10094000ED0DF11D8081803319F499EEF92208C074
:100950001F5FF2FE05C003C08F2D867809F01F5F70
:100960000F2DF3FC14C0F0FE0FC01E1510F09D2CCF
:100970000BC09D2C9E0C911A1E2D06C080E290E0AB
:10098000B3010E9481021F5F1E15C0F304C01E1533
:1009900010F4E11A01C0EE2404FF0FC080E390E0E0
:1009A000B3010E94810202FF1DC001FD03C088E760
:1009B00090E00EC088E590E00BC0802F867891F023
:1009C00001FF02C08BE201C080E2F7FC8DE290E003
:1009D000B3010E94810206C080E390E0B3010E944F
:1009E00081029A94D914C0F3DA94F101ED0DF11D4E
:1009F000808190E0B3010E948102DD20A9F706C04A
:100A000080E290E0B3010E948102EA94EE20C1F7F7
:100A100043CEF30166817781CB012B96E2E10C9402
:100A2000342AFC0120FD08C023FD05C022FF02C0BE
:100A300073836283518340830895EF92FF920F93F3
:100A40001F9344FF02C033E011C046FF02C034E0F0
:100A50000DC0DB01FC01AA0FBB1FEE1FFF1F10948E
:100A6000D1F76A0F7B1F8E1F9F1F31E0660F771F24
:100A7000881F991F3150D1F77B018C01E20EF11CC8
:100A8000011D111DA8019701B701CA011F910F9106
:100A9000FF90EF9008950F931F93CF93DF938C01F6
:100AA000C8010E94C707EC0197FD08C00E940D2AEB
:100AB000892BB1F7CE01B8010E940908CE01DF9160
:100AC000CF911F910F910895A0E0B0E0EAE6F5E024
:100AD0000C94202AEC01C62E5A01122F0E94C7073F
:100AE000AC018B3219F08D3251F41068CA9409F4BC
:100AF0006DC0CE010E94C707AC0197FD67C06DEFC6
:100B0000D62ED1228D2D807301F54033F1F4CA9495
:100B100009F447C0CE010E94C707AC0197FD41C050
:100B200082E0D82A483711F0483559F480E4D82AB1
:100B3000CA94B9F1CE010E94C707AC0199232CF4E5
:100B400030C0D6FC02C080E1D82AEE24FF24870101
:100B5000242F2053283088F0D4FC09C02A3068F0B4
:100B6000D6FE05C02F7D822F8151863028F0CA0124
:100B7000BE010E94090812C02750C801B7014D2DBF
:100B80000E941D057B018C0182E0D82ACA9461F085
:100B9000CE010E94C707AC0197FFDACFD1FC04C099
:100BA00015C0EE24FF248701D7FE08C010950095DC
:100BB000F094E094E11CF11C011D111DC501B80168
:100BC000A7012D2D0E94110581E001C080E0CDB765
:100BD000DEB7EAE00C943C2AA0E2B0E0E2EFF5E0F8
:100BE0000C941C2A6C01A62E8A017901FE01319613
:100BF00080E2DF011D928A95E9F770E030E060E065
:100C000040E050E04F01A1E0B0E0F6018381F70140
:100C100083FD259183FF21917F01222309F47EC06A
:100C20002E3519F44115510569F1872F90E084178D
:100C3000950744F42D3551F12D3221F4332329F455
:100C400031E021C0332309F4622F322F832F8695A0
:100C500086958695F401E80FF11D832F87703D017D
:100C600002C0660C771C8A95E2F720812629208332
:100C7000361711F430E007C0361710F43F5FE6CFA7
:100C80003150E4CF71E04F5F5F4FBFCF332319F096
:100C90008E8180628E83772359F0FE0131969E010A
:100CA0002F5D3F4F808180958193E217F307D1F745
:100CB000BB24B3944E010894811C911CC6010E9470
:100CC000C707AC0197FD22C0869586958695F401ED
:100CD000E80FF11D808190E09A012770307002C00A
:100CE000959587952A95E2F780FD05C0CA01B60162
:100CF0000E9409080BC00115110519F0D8014D9388
:100D00008D01AA94BB24AA20C9F602C0BB2031F4ED
:100D10000115110529F0F801108202C0EE24FF240C
:100D2000C701A096EEE00C94382AA0E0B0E0EBE911
:100D3000F6E00C941C2A5C016B013A01FC0117825D
:100D400016828824EAC0812F90E00E940D2A892B08
:100D500021F0C5010E944B05E0C0153249F4F601AF
:100D6000F3FC6591F3FE61916F01653269F415E260
:100D7000C5010E94C70797FDDCC0181709F4CDC054
:100D8000B5010E940908DAC06A3219F0162F00E096
:100D900006C0F3FC1591F3FE11916F0101E0992457
:100DA0000FC00260692D70E080E090E040E20E9498
:100DB0001D05962EF601F3FC1591F3FE11916F01BE
:100DC000212F20532A3068F301FD03C099249A94FF
:100DD00003C0992009F4B2C0183621F01C3699F4EA
:100DE000F6010BC0F601F3FC6591F3FE61916836E4
:100DF00019F06F01162F07C008600460F3FC15910D
:100E0000F3FE11916F01112309F498C082E092E082
:100E1000612F70E00E94A607892B09F48FC0802FF4
:100E200000FF03C0EE24FF2407C0F301E080F1803F
:100E300022E030E0620E731E1E3651F4F501468149
:100E4000578160E070E0C701202F0E94110565C046
:100E5000133691F481FD02C099249394C5010E9438
:100E6000C70797FD66C0E114F10419F0F7018193FB
:100E70007F019A9499F74FC01B3559F4C501692D2C
:100E8000A70196010E94EC056C01009709F043C090
:100E90003DC0C5010E944B0597FD4BC01F3659F15F
:100EA000103728F4143629F1193639F527C01337CD
:100EB00019F0153711F51DC0C5010E94C707EC01D7
:100EC00097FD11C00E940D2A892B29F0CE01B50192
:100ED0000E94090808C0E114F10419F0F701C19358
:100EE0007F019A9449F7E114F104A9F0F701108207
:100EF00012C0006203C0006101C00064C501692D19
:100F0000A701202F0E946405882329F4F50183811D
:100F1000807379F413C000FF8394F501F380F60128
:100F2000F3FC1591F3FE11916F01112309F00BCF22
:100F300005C0882019F42FEF3FEF02C0282D30E0C4
:100F4000C901CDB7DEB7EEE00C94382AFC0105905C
:100F5000061621F00020D9F7C00108953197CF017E
:100F60000895FC010590615070400110D8F78095FC
:100F700090958E0F9F1F0895FC0161507040019065
:100F80000110D8F7809590958E0F9F1F0895CF93ED
:100F9000DF93EC014B8140FF1AC046FF0AC04F7B34
:100FA0004B838E819F8101969F838E838A81282F18
:100FB0002BC042FF13C0E881F9818081282F33279D
:100FC00027FD30952115310529F440624B832FEF21
:100FD0003FEF1BC03196F983E88311C0EA85FB859A
:100FE000CE0109959C0197FF0AC09B812F5F3F4F5F
:100FF00011F080E201C080E1892B8B83E8CF8E81E4
:101000009F8101969F838E8330E0C901DF91CF914C
:1010100008959C01FB01838180FF11C086FD0FC0F4
:101020009FEF2F3F390759F0228380648F7D8383A0
:101030008681978101979783868330E002C02FEFE6
:101040003FEFC9010895FA01AA27283051F1203154
:1010500081F1E8946F936E7F6E5F7F4F8F4F9F4F4C
:10106000AF4FB1E03ED0B4E03CD0670F781F891F8E
:101070009A1FA11D680F791F8A1F911DA11D6A0F5C
:10108000711D811D911DA11D20D009F468943F910F
:101090002AE0269F11243019305D3193DEF6CF010E
:1010A0000895462F4770405D4193B3E00FD0C9F7D4
:1010B000F6CF462F4F70405D4A3318F0495D31FD41
:1010C0004052419302D0A9F7EACFB4E0A695979594
:1010D000879577956795BA95C9F70097610571056A
:1010E00008959B01AC010A2E0694579547953795B4
:1010F0002795BA95C9F7620F731F841F951FA01D0E
:101100000895109229041092280410922704109236
:10111000260410922A040895CF92DF92EF92FF9254
:101120000F931F93CF93DF936C0188E797E00E94A2
:101130009E21182F8A3009F48CC08B300CF4A0C08B
:101140008D3009F499C18B3109F445C1C09128044F
:10115000D0912904CC33D10509F47BC0E12EFF24C2
:10116000E7FCF094C7018070892B09F07CC1C701AE
:101170000E94062A892B09F076C12091260430911D
:101180002704C217D30709F422C22C33310509F40E
:1011900060C02F5F3F4F30932704209326042150D7
:1011A00030402C173D075CF0F601E20FF31F808101
:1011B00081832150304031972C173D07C4F7F60149
:1011C000EC0FFD1F10832196D0932904C0932804AF
:1011D0006091A5077091A607C7010E948102009146
:1011E000280410912904809126049091270408175F
:1011F00019077CF57601E00EF11EF70181917F0160
:101200006091A5077091A607992787FD90950E9488
:1012100081020F5F1F4FC0912604D09127040C1745
:101220001D075CF380912804909129048C179D0779
:1012300084F46091A5077091A60788E090E00E9471
:101240008102219780912804909129048C179D0791
:1012500084F380912A04882309F4BAC020912604DB
:1012600030912704C20ED31EF6011082C901DF910E
:10127000CF911F910F91FF90EF90DF90CF90089545
:10128000883009F405C1893009F060CF2091280425
:1012900030912904E9012C333105D9F208E010E03E
:1012A000C901089668E070E00E949C29081B190B90
:1012B0004091260450912704C801840F951FCD97B3
:1012C00024F00CE310E0041B150B24173507B4F4CD
:1012D000CA010197D601A80FB91FFC01E00FF11F49
:1012E000EC0DFD1D8C918083219611973197C417C9
:1012F000D507C4F320912804309129041016110653
:101300001CF5C0E0D0E080E2F82E04C02091280453
:1013100030912904F601E20FF31FF0822F5F3F4F57
:1013200030932904209328046091A5077091A607A3
:1013300080E290E00E9481022196C017D10734F329
:10134000209128043091290480912604909127044B
:10135000800F911F909327048093260489012817FA
:1013600039070CF076CF7601E20EF31EF70181917A
:101370007F016091A5077091A607992787FD909539
:101380000E9481020F5F1F4FC0912604D091270455
:101390000C171D075CF380912804909129048C1789
:1013A0009D070CF056CF6091A5077091A60788E0C5
:1013B00090E00E9481022197809128049091290455
:1013C0008C179D0784F380912A04882309F046CF67
:1013D0002FEF3FEF4BCF8091260490912704009789
:1013E00009F437CFC0912804D09129048C179D07A8
:1013F00071F410C06091A5077091A60780E290E09B
:101400000E94810221968091260490912704C8179A
:10141000D90784F3EC0118161906E4F46091A507C6
:101420007091A60788E090E00E9481026091A50774
:101430007091A60780E290E00E9481026091A5076A
:101440007091A60788E090E00E94810221971C1607
:101450001D0624F3109227041092260410922904EA
:1014600010922804F6CE6091A5077091A60787E038
:1014700090E00E948102EDCE81E080932A04609189
:10148000A5077091A6078AE090E00E948102E1CE54
:101490008091280490912904009709F4DACE4091B4
:1014A0002604509127048417950709F46AC0BC01EB
:1014B00061507040641775075CF4F601E60FF71F82
:1014C0009B01818181932F5F3F4F24173507CCF318
:1014D000709329046093280441505040509327048E
:1014E000409326046091A5077091A60788E090E0DC
:1014F0000E948102C0912804D09129048091260481
:1015000090912704C817D907BCF486010C0F1D1F42
:10151000F80181918F016091A5077091A607992725
:1015200087FD90950E9481022196809126049091DA
:101530002704C817D90764F36091A5077091A6071F
:1015400080E290E00E948102C0912604D09127049D
:101550008091280490912904C817D9070CF479CEFA
:101560006091A5077091A60788E090E00E94810233
:1015700021978091280490912904C817D90784F7EE
:1015800068CE6091A5077091A60788E090E00E9460
:1015900081026091A5077091A60780E290E00E9409
:1015A00081026091A5077091A60788E090E00E94F3
:1015B000810280912604909127040197909327043B
:1015C00080932604909329048093280442CEF60148
:1015D000EC0FFD1F1083CE01019690932904809398
:1015E000280490932704809326046091A5077091A6
:1015F000A607C7010E9481022CCEFC01848195813F
:10160000A681B7818739F8E69F07FFEFAF07F0E0C3
:10161000BF0709F4A4C0883928E692072FEFA20774
:1016200020E0B20770F1873528EA92072FEFA20772
:1016300020E0B20709F487C08835E8EA9E07EFEF9B
:10164000AE07E0E0BE0708F447C08F31F0EE9F0719
:10165000FFEFAF07F0E0BF0709F487C08D3122EE3E
:1016600092072FEFA20720E0B20709F47BC08D5349
:10167000924CAF4FB04009F463C02FE030E0C90195
:1016800008958D3DE2E29E07EFEFAE07E0E0BE0772
:1016900009F462C08E3DF2E29F07FFEFAF07F0E072
:1016A000BF07A8F1873C28E392072FEFA20720E0AD
:1016B000B20709F44EC08D39E2E69E07EFEFAE07A0
:1016C000E0E0BE0709F442C08F5C9043AF4FB040EA
:1016D000A1F62AE030E0D3CF8F36F0E99F07FFEF85
:1016E000AF07F0E0BF0709F446C08D3522EA920744
:1016F0002FEFA20720E0B20709F43AC085589A47B5
:10170000AF4FB04009F0B9CF2CE030E0B8CF8F3EFA
:1017100020E192072FEFA20720E0B20791F1873E68
:10172000E8E19E07EFEFAE07E0E0BE0739F18D5F1D
:101730009240AF4FB04009F0A0CF24E030E09FCFFF
:1017400025E030E09CCF27E030E099CF21E030E089
:1017500096CF2EE030E093CF23E030E090CF29E029
:1017600030E08DCF22E030E08ACF26E030E087CF36
:1017700020E030E084CF28E030E081CF2BE030E083
:101780007ECF2DE030E07BCF6091AA037091AB0358
:101790008BE294E00E94A71508958BE294E00E94EA
:1017A000E71D0895FC01EE0FFF1FEE0FFF1FE80F6E
:1017B000F91FE455FC4F6483089510923A0408958C
:1017C00081E080933A040895CF92DF92EF92FF92E6
:1017D0000F931F9328EE33E040E050E00E94AF29C2
:1017E000F22EE32ED42EC52E8DB79EB708970FB6D6
:1017F000F8949EBF0FBE8DBF0DB71EB70F5F1F4F72
:1018000080E091E0EDB7FEB792838183622F732F62
:10181000842F952F20E13EE040E050E00E94AF2968
:10182000F801338322836F2D7E2D8D2D9C2D2CE38B
:1018300030E040E050E00E94AF29CA01B9012CE33A
:1018400030E040E050E00E94AF29F80175836483E6
:101850006F2D7E2D8D2D9C2D2CE330E040E050E04F
:101860000E94AF29F801778366830E94AD028DB78D
:101870009EB708960FB6F8949EBF0FBE8DBF1F91FE
:101880000F91FF90EF90DF90CF900895CF92DF926D
:10189000EF92FF920F931F93DF93CF93CDB7DEB7F5
:1018A000EC970FB6F894DEBF0FBECDBF2996EEAC15
:1018B000FFAC29978701000F111F000F111F0E0D9C
:1018C0001F1D04551C4FD80114968C91813079F05E
:1018D000EC960FB6F894DEBF0FBECDBFCF91DF916F
:1018E0001F910F91FF90EF90DF90CF9008959E0190
:1018F000255B3F4F6E010894C11CD11CC6012B967D
:101900006EAD7FAD2B97A9010E9418030E9416258A
:101910000E94E40B0E9416259B01AC01B4E0EB167B
:10192000F10440F160E070E08DB79EB70A970FB602
:10193000F8949EBF0FBE8DBFEDB7FEB7319680E124
:1019400091E0ADB7BEB712969C938E931197228308
:1019500033834483558377836683D186C0860E9410
:10196000AD02EDB7FEB73A960FB6F894FEBF0FBEC4
:10197000EDBFAECFF80160817181D6CFDF92EF92DB
:10198000FF920F931F93CF93DF937C010CEA13E038
:10199000DD24F801808191810E94D614C7010E9444
:1019A0000515892B99F0F80180819181FC01EF01E7
:1019B00009900020E9F72197CE1BDF0BAE014150C3
:1019C0005040B7010E944102009789F0D3940B5F09
:1019D0001F4FF4E0DF16E9F624E030E0C901DF91A3
:1019E000CF911F910F91FF90EF90DF900895CE0D52
:1019F000DF1D4881403211F0442341F72D2D30E0A6
:101A0000EDCF0F931F93CF93DF9388E797E06EE1BD
:101A100071E00E94D123CCEAD3E006E311E000D0CC
:101A200000D000D0EDB7FEB73196ADB7BEB7129675
:101A30001C930E93119788819981938382838C8163
:101A4000848315820E94AD0225968DB79EB70696B7
:101A50000FB6F8949EBF0FBE8DBF93E0C03CD90770
:101A6000F1F68AE090E00E94C202DF91CF911F91CF
:101A70000F9108954F925F926F927F928F929F92F3
:101A8000AF92BF92CF92DF92EF92FF920F931F938C
:101A9000CF93DF93882EEB01662757FD6095762F55
:101AA000CB01BA0128EE33E040E050E00E947129FA
:101AB0002B013C01611571058105910569F19E01BC
:101AC000442737FD4095542F60E472E48FE090E0A6
:101AD0000E94D12979018A01E901E2975701680141
:101AE000992480E0992009F481E0982E882D692DB1
:101AF0000E94A626CE010E947025AE0CBF1CC01EFF
:101B0000D11ED601C5018E199F09A00BB10B8415FA
:101B10009505A605B70528F3DF91CF911F910F9189
:101B2000FF90EF90DF90CF90BF90AF909F908F90FD
:101B30007F906F905F904F900895CF92DF92EF92D9
:101B4000FF920F931F93CF93DF936A01141615062C
:101B500044F57C018B01C0E0D0E0F7016191719107
:101B60007F01F8014081518183E090E00E943A0DAD
:101B7000F801219131918F01C901880F991F820FBE
:101B8000931F880F991F6AE070E00E949C298827A4
:101B900077FD8095982F0E944A252196CC15DD056A
:101BA000E4F2DF91CF911F910F91FF90EF90DF90C2
:101BB000CF90089585EC93E067EC73E041E050E04E
:101BC0000E949D0D08958BE394E068E670E00E940A
:101BD000021E089500D080E591E0EDB7FEB7928334
:101BE00081830E94AD020F900F900895AF92BF9233
:101BF000CF92DF92EF92FF920F931F93CF93DF93D9
:101C00006C0186E591E00E94C902EE24FF2420E0E9
:101C100030E049E6A42E41E0B42EE901CE0DDF1DEF
:101C2000CC0FDD1FCC0DDD1D00E010E08881998117
:101C3000009751F100D000D0EDB7FEB7B282A1827B
:101C4000948383830E94AD020F5F1F4F26960F90EF
:101C50000F900F900F900430110541F78AE090E04B
:101C60000E94C20284E090E0E80EF91E9701220F64
:101C7000331FF901EE0DFF1DEE0FFF1FEC0DFD1DD3
:101C800080819181892B49F68AE090E00E94C2020E
:101C9000DF91CF911F910F91FF90EF90DF90CF9048
:101CA000BF90AF9008958BE394E068E777E00E94DF
:101CB0000A1E0E94E00B0E9481080E94EA0D08950E
:101CC000CF92DF92EF92FF920F931F93CF93DF9308
:101CD0007C016B01FC0180819181009789F1870172
:101CE0000A5F1F4F08C07801F801808191810A5F67
:101CF0001F4F009729F10E94D614C6010E940515B6
:101D0000892B89F3F70180819181FC01EF01099012
:101D10000020E9F72197CE1BDF0BAE014150504068
:101D2000B6010E9441020097F1F6CC0DDD1D4881FD
:101D3000403211F04423B9F6F7012281338102C009
:101D40002FEF3FEFC901DF91CF911F910F91FF90CE
:101D5000EF90DF90CF900895EF92FF920F931F9333
:101D6000CF93DF937A018B01C0E0D0E003C02196CE
:101D700080E090E0B7010E943302F80181939193D3
:101D80008F01892BA1F7CE01DF91CF911F910F9188
:101D9000FF90EF900895EF92FF920F931F93DF93C0
:101DA000CF93CDB7DEB766970FB6F894DEBF0FBE00
:101DB000CDBF8430910509F4A1C085309105D4F0E0
:101DC0008630910509F4A1C086309105ECF583EACF
:101DD00091E00E94C9020E94DD0B66960FB6F8944E
:101DE000DEBF0FBECDBFCF91DF911F910F91FF904E
:101DF000EF9008958130910509F479C08230910502
:101E00000CF45EC08230910509F469C1039709F4AE
:101E100036C18AE090E00E94C20280913A04882391
:101E2000E1F200D000D081E090E0EDB7FEB7928300
:101E300081838EEF91E0948383830E94460C0F9000
:101E40000F900F900F90C9CF8730910509F4AFC064
:101E50000897F9F680913A04882309F043C180EB92
:101E600094E00E944C13AB01BC0188E797E022E0AC
:101E700030E00E94BB2480913A048823A1F000D076
:101E800000D0ADB7BEB712961C921E92119788E88B
:101E900091E014969C938E9313970E94460C0F909A
:101EA0000F900F900F908BEC94E00E944C13AB01BD
:101EB000BC0188E797E022E030E00E94BB248DCF90
:101EC000892B09F0A6CFCB01BE016D5F7F4F4EE697
:101ED00051E00E94AC0E823091050CF44AC1029789
:101EE00009F411C186E791E00E94C90276CF8BE325
:101EF00094E068E777E00E940A1ED5CF80E991E080
:101F00000E94C9020E94E00B68CFCB01BE016D5F49
:101F10007F4F4EE651E00E94AC0E823091050CF4EA
:101F200032C10297F9F600D000D000D0EDB7FEB76D
:101F300031968D819E81ADB7BEB712969C938E93DC
:101F4000119765EBE62E61E0F62EF382E2828E01B8
:101F50000F5F1F4F158304830E94FE02EDB7FEB78B
:101F600031968D819E81ADB7BEB712969C938E93AC
:101F70001197F382E282158304830E94FE02EDB77B
:101F8000FEB736960FB6F894FEBF0FBEEDBF892B95
:101F900009F4A8CF89819A818536910508F0A2CFEE
:101FA0000E94E11200D000D088EB91E055C0CB0137
:101FB000BE016D5F7F4F4EE651E00E94AC0E823055
:101FC00091050CF4DBC0029709F08CCF00D000D053
:101FD00000D0EDB7FEB731968D819E81ADB7BEB70B
:101FE00012969C938E93119755EBE52E51E0F52EAA
:101FF000F382E2828E010F5F1F4F158304830E94DC
:10200000FE02EDB7FEB731968D819E81ADB7BEB7AA
:1020100012969C938E931197F382E2821583048328
:102020000E94FE02EDB7FEB736960FB6F894FEBFDB
:102030000FBEEDBF892B09F455CF69817A816F3FBF
:10204000710511F008F04ECF8091C9030E94DA2586
:1020500000D000D08DED91E0ADB7BEB712969C9345
:102060008E93119789819A8114969C938E931397DE
:102070000E94AD020F900F900F900F90AECECB014B
:10208000BE016D5F7F4F4EE651E00E94AC0E823084
:1020900091050CF4A2CE039709F024CF8D819E8187
:1020A0000E94BE0C7C01BFEF8F3F9B0709F41ACF43
:1020B0000F811885C8016CE871E00E943802009712
:1020C00009F466C0C8016EE871E00E94380200970A
:1020D00009F008CFC70161E00E94D20B7ECE0E94BA
:1020E000010D7BCE00D000D0EDB7FEB71282118279
:1020F00084E891E0948383830E94460C0F900F90B4
:102100000F900F90ACCE6D817E818BEC93E00E949E
:10211000600EAC0197FDE6CE2091CF033091D00345
:102120002115310509F459CE009771F0E3EDF3E084
:10213000228133812115310509F44FCE80819181AF
:10214000369648175907A1F700D000D081E791E0F3
:10215000ADB7BEB712969C938E93119714963C938D
:102160002E9313970E94AD020F900F900F900F9037
:1021700034CE8BEC93E00E94F60D2FCE8DEE91E0E5
:102180000E94C9022ACE8AEC91E00E94C90225CEA3
:10219000C8016EE871E00E943802009709F49ACFF6
:1021A000C70160E00E94D20B18CE88E797E00E943A
:1021B0006D211816190654F58FE394E00E948C08DF
:1021C00097FD24C08BEC93E06FE374E00E94600EF7
:1021D0008F5F9F4F69F480913F04882321F080E254
:1021E00092E00E94C9020E9481080E94EA0D0895AF
:1021F0008BEC93E06FE374E00E94600E6FE374E099
:102200000E94CB0E0E9481080E94EA0D08958CE77F
:1022100094E00E942A1E8FE794E00E940D1480EB48
:1022200094E040E050E060E271E40E94F1138BEC36
:1022300094E040E050E060E07FE30E94F1130895F5
:10224000BC010997069790F580E090E00E94542821
:1022500020E030E040E151E40E94522720E030E0ED
:1022600040EA51E40E9453276093E8047093E90424
:102270008093EA049093EB0488E797E064E971E0C7
:102280000E94A6224091E8045091E9046091EA047A
:102290007091EB0488E797E022E030E00E94B824D8
:1022A00088E797E060E971E00E94A62208950F9305
:1022B0001F9388E797E040E855E260E070E00E94F5
:1022C000E6208EE193E19093F5048093F40410925C
:1022D000F7041092F60482E08093EF041092F90460
:1022E0001092F8048CEE94E09093A6078093A507D3
:1022F00000EB14E0C8016EE070E00E943A13C801E0
:1023000043E95AE361EB7EE305E713E123EA31ECAD
:102310000E943E130BEC14E0C8016FE070E00E94D5
:102320003A13C80140E050E06CED7DE300E010E0BE
:1023300020E030EC0E943E1383E00E94B5250E940D
:10234000530E0E94CD0B86E061E00E943A2683E0A6
:1023500061E00E943A260FE714E0C8016EEB71E1DC
:1023600046E155E20E94D014C8010E9412149093D5
:10237000E7048093E6041F910F910895EF92FF9276
:102380000F931F937C0108E717E0C80169E573E02C
:102390000E94D1230E941625AB01BC01C8012AE08E
:1023A00030E00E947123C8016CE871E00E94A6220F
:1023B000C80164E871E00E94A622C801B7014AE0A2
:1023C00050E00E948023C80161E871E00E94A622CB
:1023D0001F910F91FF90EF900895CF93DF93FC0131
:1023E000808191810197F1F080913A04882319F45A
:1023F000DF91CF91089500D000D0ADB7BEB712964F
:102400001C921E9211978FE693E014969C938E93E4
:1024100013970E94460C0F900F900F900F90DF9132
:10242000CF910895CF010E94FD0AEC0180913A04FA
:10243000882349F4CF30D105D8F60E94DA0DCE01B9
:102440000E942011D5CF00D000D000D0EDB7FEB74C
:102450003196ADB7BEB712961C921E92119788E6C0
:1024600093E093838283D583C4830E94460CEDB7A7
:10247000FEB736960FB6F894FEBF0FBEEDBFDACFAB
:102480008FE794E00E9482146091E6047091E70463
:102490008FE794E00E947014882309F467C080EBF2
:1024A00094E00E94C2138130F1F18BEC94E00E9421
:1024B000C2138130A1F00E94D5108BE294E06CE24F
:1024C00074E00E94D01C892B09F408958CE294E0FA
:1024D0000E94ED118BE294E00E94AC15089580916A
:1024E0003A04882309F04BC08BEC94E00E94C61399
:1024F000AB01BC0188E797E022E030E00E94B824FD
:1025000088E797E06FE671E00E94A6228BEC94E0EA
:102510000E945413AB01BC0188E797E022E030E051
:102520000E94BB24C8CF80913A048823C9F580EB70
:1025300094E00E94C613AB01BC0188E797E022E05B
:1025400030E00E94B82488E797E068E771E00E94D5
:10255000A62280EB94E00E945413AB01BC0188E7F3
:1025600097E022E030E00E94BB249FCF80EB94E014
:102570000E94CE138BEC94E00E94CE1390CF00D03B
:1025800000D0EDB7FEB71282118280E993E0948308
:1025900083830E94460C0F900F900F900F90A4CF52
:1025A00000D000D0EDB7FEB71282118282E893E02E
:1025B000948383830E94460C0F900F900F900F908E
:1025C000B6CFCF93DF93843630F1C6E9D0E08CE705
:1025D00094E064E070E00E94971F6091E6047091BF
:1025E000E7048FE794E020E137E240E050E00E940A
:1025F0003D148CE794E0BE010E94B01E64EF71E0D0
:1026000080E090E00E944A258CE794E00E94441EFE
:10261000DF91CF91089590E02AE530E0AC01429F30
:10262000C001439F900D529F900D112464E670E00D
:102630000E949C29645CC62FD0E0C9CF1F93182F3D
:102640008A3061F0612F772767FD709588E797E002
:102650000E94D72180E090E01F91089588E797E0DD
:102660006DE00E94D721EECFFC0146875787608B33
:10267000718B0895FC017183608308950F931F93FC
:10268000FC01428353836483758306831783208709
:1026900031871F910F910895FC0122853385448570
:1026A0005585B901CA010895CF92DF92EF92FF924A
:1026B0000F931F938C01FC01C280D380E480F580CE
:1026C00080810E94B825AA2797FDA095BA2FBC014A
:1026D000CD010E9456289B01AC01C701B6010E94A2
:1026E0000A29F80126813781408551850E945327A8
:1026F0001F910F91FF90EF90DF90CF9008958F92F0
:102700009F92AF92BF92CF92DF92EF92FF920F9380
:102710001F934C010E9454137B018C01F401A68489
:10272000B784C088D18860E070E080E89FE3A601AC
:1027300095010E9452279B01AC01C801B7010E947C
:102740000A297B018C01C601B501F401228533857C
:10275000448555850E940A299B01AC01C801B70137
:102760000E945327F40162877387848795871F919E
:102770000F91FF90EF90DF90CF90BF90AF909F9020
:102780008F900895FC01828D128E0895FC01268998
:102790003789408D518DB901CA010895CF93DF93D8
:1027A000EC010E947F13CE010E944C132E893F89B9
:1027B000488D598D0E9452279F772A893B894C89E1
:1027C0005D890E94062918164CF4CE010E944C1314
:1027D0006E8B7F8B888F998F81E08A8FDF91CF916D
:1027E0000895CF92DF92EF92FF920F931F938C0187
:1027F0006A017B0146E656E666E67FE30E943413F3
:10280000F801C28AD38AE48AF58A128E1F910F9149
:10281000FF90EF90DF90CF900895FC0115A614A6CD
:1028200010AA0895DC01FC0120E030E082858823B5
:1028300051F02F5F3F4F3B9624303105B9F720E030
:1028400030E0C9010895F901EE0FFF1FC901880F9B
:10285000991F880F991F880F991FE80FF91FE20F22
:10286000F31FEA0FFB1F81E08287D0968C91D097EF
:102870008F5FD0968C93C9010895EF92FF920F93CA
:102880001F93CF93DF93FC0179018A01EB01CC0FF9
:10289000DD1FCB01880F991F880F991F880F991F83
:1028A000C80FD91FC60FD71FCE0FDF1F8A858823F9
:1028B00081F081E08887198606A4F7A5E02D0995A7
:1028C000688379838A839B83EC82FD820E831F83D6
:1028D00081E0DF91CF911F910F91FF90EF900895CC
:1028E000FB01EE0FFF1F9B01220F331F220F331F2F
:1028F000220F331FE20FF31FE60FF71FE80FF91F38
:1029000080850895DF92EF92FF920F931F93CF93EC
:10291000DF937C01DC01D0962C91222371F0EC0135
:1029200000E010E08885813081F00F5F1F4F2B960B
:10293000822F90E008171907A8F3DF91CF911F911C
:102940000F91FF90EF90DF900895DA84B1E0DB16ED
:1029500061F78985882349F7D7019E96ED91FC910F
:102960009F970995288139814A815B81621B730B8E
:10297000840B950B2C813D814E815F812617370793
:102980004807590718F0F70120A9CFCFD7019C9627
:10299000ED91FC919D97C80109951886D986F3CFD2
:1029A000FC0175A764A757A746A70895AC01FC01D1
:1029B00001900020E9F73197E81BF90B8E2FE09387
:1029C000FA04ABEFB4E08D9395E0AB3FB907D9F7CC
:1029D000682F70E06115710599F0982F915020E0F3
:1029E00030E0FA01E20FF31FE081F0E0E550FB4F29
:1029F000892F821B80832F5F3F4F2617370788F36D
:102A00005093FB054093FA0508959F92AF92BF92B1
:102A1000CF92DF92EF92FF920F931F93CF93DF93AA
:102A20007C019090FA04192D1150FC0101900020B6
:102A3000E9F731970E2F081B1017A8F4A090FA059C
:102A4000B090FB05C92CDD24612F70E0F701E60F83
:102A5000F71FE081F0E0E550FB4FE081EE2391F0BD
:102A60001E0F101788F3C0E0D0E0CE01DF91CF91A8
:102A70001F910F91FF90EF90DF90CF90BF90AF909C
:102A80009F900895EB01CC19DD092196CE0DDF1D35
:102A9000C501BE01492D50E00E944102009729F373
:102AA0001F5F101788F2DFCFDF92EF92FF920F9334
:102AB0001F93CF93DF93EC01882777FD8095982FA4
:102AC0000E9456287B018C0120E030E040E45FE367
:102AD0000E940A2920E030E048E452E40E94BB272B
:102AE0000E942328C617D70714F4DD241CC0DD2458
:102AF000C801B70120E030E040EA5FE30E940A2904
:102B000020E030E048E452E40E94BB2720E030E0BF
:102B100040E85FE30E9453270E9423286C177D073B
:102B200014F0DD24D3948D2D90E0DF91CF911F918F
:102B30000F91FF90EF90DF9008956C597F4F0E94A6
:102B400054150895645670400E945415089560937A
:102B5000FC051092FE05089582E08093FD05109219
:102B6000C9060895AF92BF92CF92DF92EF92FF9283
:102B70000F931F93CF93DF936B01DB011A96CD91D7
:102B8000DC911B978A819B8168E273E20E949D150C
:102B9000892B09F480C08091C906843009F08CC06B
:102BA0008C819D816AEC78E00E94A215892B09F442
:102BB00083C08E819F8160E372E00E949D15892B06
:102BC00009F47AC0F601118610868FEF9FEFAFEF00
:102BD000BFEF84839583A683B78381E090E09183E0
:102BE000808354C08C819D8164E971E10E94A215AB
:102BF000892B09F450C02696EE24FF24870123E098
:102C0000A22EB12C8881998160E372E00E949D150B
:102C1000892B09F440C08A819B8160E476E00E94A0
:102C2000A215892B69F0EE0CFF1C001F111F81E01B
:102C300090E0A0E0B0E0E82AF92A0A2B1B2B0CC098
:102C40008A819B8160E372E00E94A215892B19F1B1
:102C5000EE0CFF1C001F111F249691E4A916B1046D
:102C600029F0A2E0B0E0AA0EBB1ECCCF80E290E03B
:102C7000F60191878087D6011496ED92FD920D930F
:102C80001C93179781E090E08D939C9321E030E0B6
:102C900040E050E004C020E030E040E050E0B90106
:102CA000CA01DF91CF911F910F91FF90EF90DF90BC
:102CB000CF90BF90AF9008958091C906843458F3A7
:102CC00091CFAF92BF92CF92DF92EF92FF920F938C
:102CD0001F93CF93DF936B018091C9068A3108F46B
:102CE00080C0DB011A96CD91DC911B978881998178
:102CF000845F914080F4FB01118610868FEF9FEF77
:102D0000AFEFBFEF84839583A683B78389E090E01C
:102D10009183808361C08A819B8160E679E00E9413
:102D20009D15892B09F45DC02696EE24FF248701AA
:102D300062E0A62EB12C30C022978881998122961C
:102D400068E572E00E94A215892B79F1888199814A
:102D500060EB74E00E949D15892B69F0EE0CFF1C5E
:102D6000001F111F81E090E0A0E0B0E0E82AF92AFE
:102D70000A2B1B2B0CC08881998168E572E00E94A8
:102D80009D15892B71F1EE0CFF1C001F111FA2E095
:102D9000B0E0AA0EBB1E24968091C90695012F5F54
:102DA0003F4F90E0281739073CF2C50101979595F0
:102DB0008795F601918780870C971CF41186108601
:102DC00010C0D6011496ED92FD920D931C931797A7
:102DD00082E090E08D939C9321E030E040E050E071
:102DE00004C020E030E040E050E0B901CA01DF91CA
:102DF000CF911F910F91FF90EF90DF90CF90BF90F8
:102E0000AF900895AF92BF92CF92DF92EF92FF9270
:102E10000F931F93CF93DF936B018091C9068A3183
:102E200008F489C0DB011A96CD91DC911B9788814B
:102E300099818052934080F4FB01118610868FEFB8
:102E40009FEFAFEFBFEF84839583A683B78389E0BD
:102E500090E0918380836AC08A819B816CEA7DE0E7
:102E60000E949D15892B09F466C08C819D816CEAB6
:102E70007DE00E949D15892B09F45DC02896EE2403
:102E8000FF248701A3E0AA2EB12C30C022978881AD
:102E90009981229666EB73E00E94A215892B79F145
:102EA0008881998160E679E00E949D15892B69F0FF
:102EB000EE0CFF1C001F111F81E090E0A0E0B0E0CD
:102EC000E82AF92A0A2B1B2B0CC0888199816CEB0C
:102ED00072E00E949D15892B71F1EE0CFF1C001F02
:102EE000111FA2E0B0E0AA0EBB1E24968091C90675
:102EF00095012F5F3F4F90E0281739073CF2C5013D
:102F0000019795958795F601918780870C971CF41A
:102F10001186108610C0D6011496ED92FD920D9385
:102F20001C93179789E090E08D939C9321E030E00B
:102F300040E050E004C020E030E040E050E0B90163
:102F4000CA01DF91CF911F910F91FF90EF90DF9019
:102F5000CF90BF90AF9008956F927F928F929F9283
:102F6000AF92BF92CF92DF92EF92FF920F931F9397
:102F7000CF93DF934B018091C906823208F47AC067
:102F8000DB011A96CD91DC911B978A819B816EE5BE
:102F900071E00E949D15892B09F46CC036E0A32EC8
:102FA000B12CAC0EBD1EEE24FF24870122E0C22E00
:102FB000D12C37C0E5012297888199816EE977E0AD
:102FC0000E949D15892B69F0EE0CFF1C001F111F3C
:102FD00081E090E0A0E0B0E0E82AF92A0A2B1B2B60
:102FE0000DC0888199816EEE72E00E949D15892B3B
:102FF00009F440C0EE0CFF1C001F111FD5018D917C
:103000009C916EE571E00E94A215E4E0F0E0AE0E46
:10301000BF1E892B11F463010FC022E030E0C20E05
:10302000D31E36010894611C711C8091C90690E082
:10303000681679060CF4BECFC60101979595879561
:10304000D40119969C938E93189740972CF4199657
:103050001C921E9218970EC0F401E482F58206833A
:1030600017838AE090E09183808321E030E040E0A4
:1030700050E004C020E030E040E050E0B901CA0177
:10308000DF91CF911F910F91FF90EF90DF90CF9044
:10309000BF90AF909F908F907F906F9008956F92A8
:1030A0007F928F929F92AF92BF92CF92DF92EF92D8
:1030B000FF920F931F93CF93DF93FB013A015901C6
:1030C0006801DA012D913C9184859585281739078F
:1030D00024F071E0E72EF12C56C0C901880F991F2A
:1030E0000284F385E02DE80FF91F80819181982EED
:1030F000892E20FD06C00CE91FEF51E0E52EF12CD2
:1031000004C004E610E0EE24FF24B8016C0D7D1D20
:10311000892D982D0E945415892B19F021E030E05B
:1031200020C0E601CC0FDD1FB8016C0F7D1F892D7B
:10313000982D0E945415892B19F022E030E011C01F
:10314000CC0DDD1D0C0F1D1F892D982DB8010E947F
:103150005415892B21F4EE24EA94FE2C14C023E0AC
:1031600030E0F501808191810196918380838217FF
:1031700093074CF011821082D3018D919C9111978D
:1031800001968D939C93C701DF91CF911F910F9171
:10319000FF90EF90DF90CF90BF90AF909F908F9077
:1031A0007F906F9008952F923F924F925F926F920F
:1031B0007F928F929F92AF92BF92CF92DF92EF92C7
:1031C000FF920F931F93DF93CF9300D000D000D0D6
:1031D000CDB7DEB71C015B018091C9068D3008F4C4
:1031E0007EC081E090E09A8389831C821B82A3E0E9
:1031F0008A2E912C8C0E9D1EC1012E010894411C1B
:10320000511CA201940109E713E00E944F18892B79
:1032100009F065C0C101B501A20194010E944F18D7
:10322000019709F05CC0C101B501A20194010E949F
:103230004F18892B09F053C0CC24DD247601662475
:103240007724C4018D829E832FC0C101B501A201E4
:103250002D813E8109E713E00E944F184C01C10106
:10326000B501A2012D813E810E944F1821E08216F6
:10327000910479F4892B99F5CC0CDD1CEE1CFF1C14
:1032800081E090E0A0E0B0E0C82AD92AEA2AFB2A2F
:1032900008C0892821F5019711F5CC0CDD1CEE1C26
:1032A000FF1C0894611C711C8091C90690E0298163
:1032B0003A81281739074CF2D50119967C926E9203
:1032C0001897F501C482D582E682F78283E090E008
:1032D0009183808321E030E040E050E004C020E0B2
:1032E00030E040E050E0B901CA0126960FB6F894EC
:1032F000DEBF0FBECDBFCF91DF911F910F91FF9029
:10330000EF90DF90CF90BF90AF909F908F907F9085
:103310006F905F904F903F902F9008952F923F9223
:103320004F925F926F927F928F929F92AF92BF92D5
:10333000CF92DF92EF92FF920F931F93DF93CF9381
:10334000CDB7DEB728970FB6F894DEBF0FBECDBF5E
:103350001C014B01DB011C968D919C911D97181649
:1033600019060CF0C4C081E090E09A8389831A9614
:103370000D911C911B97F801828193816AE67AE096
:103380000E949D15892B09F4B2C082E090E09A83D7
:103390008983D80114968D919C91159769E773E004
:1033A0000E94A215892B09F4A2C083E090E09A83C1
:1033B00089831C821B8203E0A02EB12CAC0EBD1EA3
:1033C000C101B4013E010894611C711CA301950167
:1033D0000CEB11E00E944F18892B09F088C0C10145
:1033E000B401A30195010E944F18019709F07FC015
:1033F000CC24DD24760144245524C501AD829E836E
:10340000C3016F82988756C0C101B4014F815885AE
:103410002D813E810CEB11E00E944F183C01B3E07E
:103420004B16510461F4C101B4014F8158852D81BF
:103430003E810E944F186816790609F058C0C101F4
:10344000B4014F8158852D813E810CEB11E00E9423
:103450004F185C01E3E04E16510459F4C101B40168
:103460004F8158852D813E810E944F18A816B906BC
:10347000F1F56114710489F4F1E0AF16B104B9F506
:10348000CC0CDD1CEE1CFF1C81E090E0A0E0B0E065
:10349000C82AD92AEA2AFB2A0AC091E069167104CF
:1034A00031F5AB2821F5CC0CDD1CEE1CFF1C08947B
:1034B000411C511C29813A81D4011C968D919C910B
:1034C0001D97281739070CF49FCF19965C924E92DE
:1034D0001897F401C482D582E682F78284E090E0F6
:1034E0009183808321E030E040E050E004C020E0A0
:1034F00030E040E050E0B901CA0128960FB6F894D8
:10350000DEBF0FBECDBFCF91DF911F910F91FF9016
:10351000EF90DF90CF90BF90AF909F908F907F9073
:103520006F905F904F903F902F9008956F927F9291
:103530008F929F92AF92BF92CF92DF92EF92FF92C3
:103540000F931F93CF93DF937B01FB01C285D3853C
:103550008A819B816EEA7DE00E949D15892B09F48A
:1035600074C08C819D8166ED76E00E949D15892B4B
:1035700009F46BC0269600E010E0DD24CC249924E9
:1035800088247724662483E0A82EB12C8881998131
:1035900066EF71E00E949D15892B09F456C08A815F
:1035A0009B816CED74E00E94A215892B69F0980153
:1035B0004D2D5C2D692D782D872D962D01E00E94D3
:1035C000B401022F016013C08A819B8160E971E020
:1035D0000E94A215892BC9F198014D2D5C2D692DF2
:1035E000782D872D962D01E00E94B401022F132F14
:1035F000D42EC52E962E872E782E692E2496F1E68F
:10360000AF16B10429F082E090E0A80EB91EBECF3B
:10361000C801F70104839583468357839801872D5A
:10362000962D00E20E943501C901F70122839383A0
:1036300087E090E09183808380E390E091878087AA
:1036400021E030E040E050E004C020E030E040E025
:1036500050E0B901CA01DF91CF911F910F91FF9006
:10366000EF90DF90CF90BF90AF909F908F907F9022
:103670006F9008958F929F92AF92BF92CF92DF92F8
:10368000EF92FF920F931F93CF93DF936B01809183
:10369000C906823209F0B2C0DB011A96CD91DC91E5
:1036A0001B978A819B8168E572E00E949D15892B9A
:1036B00009F4A4C08091C90621E030E0281B31093B
:1036C000220F331FC21BD30B8881998168E572E0FA
:1036D0000E949D15892B09F491C0F6011186108670
:1036E0008FEF9FEFAFEFBFEF84839583A683B78300
:1036F00088E090E09183808369C08091C90681321F
:1037000008F469C0D50114968D919C91159760EAD3
:103710007FE00E94A215892B09F45DC0E501269681
:10372000EE24FF24870133E0832E912C8881998138
:1037300068E572E00E949D15892B09F44CC08A81CE
:103740009B8160E476E00E94A215892B69F0EE0C63
:10375000FF1C001F111F81E090E0A0E0B0E0E82A0C
:10376000F92A0A2B1B2B0CC08A819B8166E272E02E
:103770000E94A215892B79F1EE0CFF1C001F111F6E
:10378000A2E0B0E08A0E9B1E2496B3E28B16910451
:1037900069F6E6E4F0E0AE0EBF1ED5018D919C9176
:1037A00068E572E00E949D15892BA9F080E190E008
:1037B000F60191878087D6011496ED92FD920D93C4
:1037C0001C93179788E090E08D939C9321E030E064
:1037D00040E050E004C020E030E040E050E0B901BB
:1037E000CA01DF91CF911F910F91FF90EF90DF9071
:1037F000CF90BF90AF909F908F900895F601A284D4
:10380000B384D50112968D919C91139760E47FE16A
:103810000E949D15892B09F070CFDDCFAF92BF922A
:10382000CF92DF92EF92FF920F931F937B0160E0A4
:1038300070E0CB01BA010E9454285B016C0100E0EA
:1038400010E0C801B7010E9454287B018C012DECC7
:103850003CEC4CE45FE30E940A299B01AC01C601E9
:10386000B5010E94B72788231CF420E030E018C07F
:10387000C601B5012DEC3CEC4CE45FE30E940A2943
:103880009B01AC01C801B7010E94B727282F33273D
:1038900027FD30952227330F221F33272F5F3F4FFD
:1038A000C9011F910F91FF90EF90DF90CF90BF90D3
:1038B000AF9008954F925F926F927F928F929F92F6
:1038C000AF92BF92CF92DF92EF92FF920F931F932E
:1038D000CF93DF932C014B01FB01848595858630C6
:1038E00091052CF420E030E040E050E046C075EC5B
:1038F000A72E7DE9B72E7CE1C72E71E8D72EC6E052
:10390000D0E03C01660C771C24C0F401A285B3858D
:10391000FE013497EA0FFB1F60817181AC0FBD1F60
:103920004D915C91C2010E940E1C7C01C601B50143
:1039300023E931E040E051E00E9471295B016C0114
:103940000027F7FC0095102FAE24BF24C026D126F7
:103950002296C615D705C9F6F401A482B582C6829F
:10396000D78280E290E0918780878FEF9FEF9183ED
:10397000808321E030E040E050E0B901CA01DF91EE
:10398000CF911F910F91FF90EF90DF90CF90BF905C
:10399000AF909F908F907F906F905F904F90089521
:1039A0000F931F93CF93DF938C01EB0181E096E09F
:1039B0009B878A878091C9068C871D868091FD052B
:1039C000853009F057C0C8010E94B2156115710514
:1039D0008105910509F051C0C801BE010E94611620
:1039E000611571058105910509F047C0C801BE0147
:1039F0000E9402176115710581059105F1F5C80155
:103A0000BE010E94AC176115710581059105A9F5EC
:103A1000C801BE010E94D318611571058105910589
:103A200061F5C801BE010E948E19611571058105FD
:103A3000910519F5C801BE010E94961A611571051C
:103A400081059105D1F4C801BE010E943A1B6115A0
:103A500071058105910589F4C801BE010E945A1CB7
:103A6000611571058105910541F482E08093FD05A2
:103A70001092C90620E030E002C021E030E0C90128
:103A8000DF91CF911F910F9108951F920F920FB662
:103A90000F9211242F933F934F935F936F937F93D4
:103AA0008F939F93AF93BF93EF93FF938091FC0508
:103AB0000E94D926482F8091FF059091000601961B
:103AC000909300068093FF058091C906843618F014
:103AD00085E08093FD058091FD058330D1F0843031
:103AE00020F4823009F059C006C0843071F185306D
:103AF00009F053C04CC0442309F04FC08091FF052A
:103B0000909100068436910508F443C01092C906CE
:103B10001EC0413009F041C08091C906E82FF0E095
:103B20002091FF0530910006EE0FFF1FE450FA4F81
:103B3000368325838F5F8093C9061092000610920A
:103B4000FF0584E08093FD0528C04423B9F48091EB
:103B5000C906E82FF0E02091FF0530910006EE0F36
:103B6000FF1FE450FA4F368325838F5F8093C90689
:103B7000109200061092FF0583E0E4CF8091FF05CC
:103B8000909100068536910540F085E0DBCF442317
:103B900021F4109200061092FF058091FE05882303
:103BA00029F0442311F42D9A01C02D98FF91EF9133
:103BB000BF91AF919F918F917F916F915F914F9145
:103BC0003F912F910F900FBE0F901F901895F89472
:103BD00092E09093B0009093B10084E68093B3009C
:103BE000E2EBF0E01082E08190937000789482E044
:103BF0008093FD051092C9068091FC0560E00E944B
:103C00003A260895FC0181E194E0918380837383D7
:103C100062830895EF92FF920F931F93CF93DF93E8
:103C20007C018B01C0E0D0E0D7011296ED91FC91B0
:103C30001397EC0FFD1F6491662329F0C8010E94C1
:103C4000C9222196F1CFDF91CF911F910F91FF9063
:103C5000EF900895FC018091CA068C3090F4808327
:103C60008F5F8093CA06815090E0FC01EE0FFF1F2A
:103C7000E80FF91FE553F94F88EB9BE092838183AE
:103C800008958FEF80830895DC018C9190E0FC0112
:103C9000EE0FFF1FE80FF91FE553F94F80818F7B6F
:103CA00080838C916CE00E94902990E0AC01440FDD
:103CB000551F480F591F440F551F440F551F20E033
:103CC00030E0C901840F951FFC01EE0FFF1FE80FC4
:103CD000F91FE553F94F808186FD05C02F5F3F4FE7
:103CE0002C30310571F70895FC0120812C30B8F596
:103CF0008181992787FD909548E850E0481B590B32
:103D0000440F551F440F551F6417750784F08281B7
:103D1000992787FD909548E552E0481B590B440FC1
:103D2000551F440F551F641775070CF4AB01425023
:103D30005040CA01AA2797FDA095BA2F880F991F56
:103D4000AA1FBB1F4FB7F89430E0F901EE0FFF1F19
:103D5000E20FF31FE553F94F928381834FBF08951C
:103D6000AF92BF92CF92DF92EF92FF920F931F9389
:103D7000CF93DF93EC019B0182E0603278070CF077
:103D800048C077FF03C020E030E005C0653B710507
:103D900014F024EB30E000D000D0B901882777FD83
:103DA0008095982F2981332727FD3095B8E8AB2ED1
:103DB000B12CA21AB30AAA0CBB1CAA0CBB1CCC24A3
:103DC000B7FCC094DC2CEA81FF27E7FDF09528E5DD
:103DD00032E02E1B3F0B220F331F220F331F4427CD
:103DE00037FD4095542FEDB7FEB7218332834383CF
:103DF000548320E030E040E050E0E4EBEE2EF12C84
:103E0000012D112D0E9409279B010F900F900F90FB
:103E10000F90CE01B9010E94741EDF91CF911F91C6
:103E20000F91FF90EF90DF90CF90BF90AF900895EB
:103E3000CF92DF92EF92FF921F93CF93DF93EC012B
:103E4000162F7A01690188818C3008F064C0862FB2
:103E500061E00E943A26888190E0FC01EE0FFF1F8E
:103E6000E80FF91FE553F94F1F738081807C812B88
:103E7000808380E292E08E199F0964E070E00E94E6
:103E80009C29698380E699E08C199D0964E070E0C3
:103E90000E949C296A83A8818A2F6CE00E94902945
:103EA000682F70E0AB01440F551F460F571F440F9A
:103EB000551F440F551F20E030E0C901840F951FA6
:103EC000FC01EE0FFF1FE80FF91FE553F94F80814A
:103ED00086FD15C02F5F3F4F2C30310571F724C090
:103EE0001092800082E080938100109285001092F1
:103EF0008400B19A80916F00826080936F008A2F56
:103F000090E0FC01EE0FFF1FE80FF91FE553F94F9A
:103F10008081806480838881DF91CF911F91FF90A1
:103F2000EF90DF90CF900895672BD1F2E8CF40E279
:103F300052E020E639E00E94181F08951F920F9268
:103F40000FB60F9211242F933F934F935F936F936C
:103F50007F938F939F93AF93BF93EF93FF93809142
:103F6000EF0687FF05C010928500109284002BC0D9
:103F70002091EF06332727FD30958091CA0690E007
:103F80002817390704F58091EF06992787FD90954A
:103F9000FC01EE0FFF1FE80FF91FE553F94F808179
:103FA00086FF11C08091EF06992787FD9095FC014F
:103FB000EE0FFF1FE80FF91FE553F94F80818F7354
:103FC00060E00E94A6268091EF068F5F8093EF0647
:103FD0002091EF06332727FD30958091CA0690E0A7
:103FE000281739070CF04EC08091EF068C300CF08A
:103FF00049C020918400309185008091EF06992777
:1040000087FD9095FC01EE0FFF1FE80FF91FE553A8
:10401000F94F81819281280F391F309389002093B5
:1040200088008091EF06992787FD9095FC01EE0F9F
:10403000FF1FE80FF91FE553F94F808186FF2BC062
:104040008091EF06992787FD9095FC01EE0FFF1FE9
:10405000E80FF91FE553F94F80818F7361E00E94EB
:10406000A62619C080E49CE905C080918400909147
:104070008500049690938900809388008FEF809349
:10408000EF0609C0809184009091850004968054C9
:104090009C4940F3EACFFF91EF91BF91AF919F917F
:1040A0008F917F916F915F914F913F912F910F90E1
:1040B0000FBE0F901F90189508951F920F920FB684
:1040C0000F9211242F933F934F938F939F93EF93CE
:1040D000FF938091C00082FD1DC04091C6002091D9
:1040E0003007309131072F5F3F4F2F733070809131
:1040F0003207909133072817390771F0E0913007A4
:10410000F0913107E051F94F40833093310720930C
:10411000300702C08091C600FF91EF919F918F916F
:104120004F913F912F910F900FBE0F901F901895B8
:10413000E0918407F0918507E05CFF4F81919191B8
:1041400020813181821B930B8F739070892B11F02A
:104150000E945C2008951F920F920FB60F921124B7
:104160002F933F938F939F93EF93FF932091740727
:104170003091750780917607909177072817390756
:1041800031F48091C1008F7D8093C10014C0E09113
:104190007607F0917707EC5CF84F208180917607E5
:1041A0009091770701968F73907090937707809323
:1041B00076072093C600FF91EF919F918F913F91D9
:1041C0002F910F900FBE0F901F901895AF92BF9236
:1041D000DF92EF92FF920F931F93CF93DF93EC0147
:1041E0007A018B01DD24403081EE580780E06807BA
:1041F00080E0780711F0DD24D39491E0A92EB12C52
:10420000EC89FD89DD2069F0C50108A002C0880F96
:10421000991F0A94E2F7808360E079E08DE390E0F3
:1042200005C0108260E874E88EE190E0A801970173
:104230000E94AF292150304040405040569547954C
:104240003795279580E12030380720F0DD2011F0E8
:10425000DD24D6CFE889F9893083EA89FB89208378
:1042600019A2EE89FF89408121E030E0C9010C8C60
:1042700002C0880F991F0A94E2F7482B4083EE8909
:10428000FF894081C9010D8C02C0880F991F0A94D3
:10429000E2F7482B4083EE89FF894081C9010E8CEB
:1042A00002C0880F991F0A94E2F7482B4083EE89D9
:1042B000FF8980810F8C02C0220F331F0A94E2F71E
:1042C000209528232083DF91CF911F910F91FF909C
:1042D000EF90DF90BF90AF900895DC011C96ED91B8
:1042E000FC911D97E05CFF4F21913191808191817C
:1042F000281B390B2F733070C9010895DC011C96FF
:10430000ED91FC911D97E05CFF4F20813181E054DD
:10431000F040DF01AE5BBF4F8D919C911197281744
:10432000390719F42FEF3FEF07C08D919C91E80FEB
:10433000F91F8081282F30E0C9010895DC011C9607
:10434000ED91FC911D97E05CFF4F20813181E0549D
:10435000F040DF01AE5BBF4F8D919C911197281704
:10436000390719F42FEF3FEF10C08D919C911197F1
:10437000E80FF91F20818D919C91119701968F7301
:10438000907011969C938E9330E0C9010895DC01E2
:1043900091968C919197882339F05496ED91FC91E8
:1043A0005597808186FFF9CF91961C920895CF93FF
:1043B000DF93EC01EE85FF85E05CFF4F20813181CA
:1043C000E054F0402F5F3F4F2F733070DF01AE5B42
:1043D000BF4F8D919C91119728173907D1F3E05C5D
:1043E000FF4F80819181E054F040E80FF91F608316
:1043F000EE85FF85E05CFF4F31832083EE89FF89E6
:10440000208181E090E00F8C02C0880F991F0A94F0
:10441000E2F7282B208381E089A3EC89FD89808144
:104420008064808381E090E0DF91CF9108951092C5
:104430007B0710927A0788EE93E0A0E0B0E08093CB
:104440007C0790937D07A0937E07B0937F0787E159
:1044500094E0909379078093780780EF96E09093AB
:1044600085078093840784E397E090938707809380
:10447000860785EC90E0909389078093880784EC09
:1044800090E090938B0780938A0780EC90E0909364
:104490008D0780938C0781EC90E090938F07809339
:1044A0008E0782EC90E0909391078093900786ECC2
:1044B00090E0909393078093920784E08093940711
:1044C00083E08093950787E08093960785E080934B
:1044D000970781E0809398070895CF93DF930E9418
:1044E0007A250E945711C8E9D0E20E944012209715
:1044F000E1F30E949820F9CFCF92DF92EF92FF92E2
:104500000F931F93CF93DF937C016B018A01C0E06F
:10451000D0E00FC0D6016D916D01D701ED91FC91F6
:104520000190F081E02DC7010995C80FD91F0150F6
:1045300010400115110571F7CE01DF91CF911F9148
:104540000F91FF90EF90DF90CF900895EF92FF9240
:104550000F931F93CF93DF937C018B01C0E0D0E0DA
:10456000F8010F5F1F4F6491662359F0D701ED9159
:10457000FC910190F081E02DC7010995C80FD91F6A
:10458000EFCFCE01DF91CF911F910F91FF90EF9070
:104590000895DC01ED91FC910190F081E02D0995E9
:1045A0000895EF92FF920F931F938C01DC01ED9120
:1045B000FC910190F081E02D6DE009957C01D8011E
:1045C000ED91FC910190F081E02DC8016AE0099520
:1045D0009C012E0D3F1DC9011F910F91FF90EF907F
:1045E0000895CF93DF93EC016115710519F420E074
:1045F00030E00FC0DB010D900020E9F71197A61BFA
:10460000B70BE881F9810280F381E02DAD010995B6
:104610009C01C901DF91CF9108954F925F927F92E3
:104620008F929F92AF92BF92CF92DF92EF92FF92C2
:104630000F931F93DF93CF93CDB7DEB7A1970FB63C
:10464000F894DEBF0FBECDBF2C01742ECB012230FB
:1046500008F42AE019A231E2C32ED12CCC0EDD1EC3
:10466000822E9924AA24BB24672D752FA5019401BD
:104670000E94AF2979018A01C801B701A5019401FF
:104680000E947129472D461B0894C108D1084A3061
:1046900014F4405D01C0495CF6014083E114F1046B
:1046A0000105110521F07E2C5F2DC801DDCFC2016F
:1046B000B6010E94F122A1960FB6F894DEBF0FBE9C
:1046C000CDBFCF91DF911F910F91FF90EF90DF90C1
:1046D000CF90BF90AF909F908F907F905F904F90C2
:1046E0000895DC012115310541F4ED91FC91019013
:1046F000F081E02D642F099508950E940D230895FF
:10470000EF92FF920F931F939A017B0100E010E05C
:10471000B801A7010E9471231F910F91FF90EF90A4
:104720000895CF92DF92EF92FF920F931F93CF9352
:10473000DF93EC016A017B012115310541F4E88129
:10474000F9810190F081E02D642F09951FC02A3076
:104750003105D1F477FF17C0E881F9810190F0812C
:10476000E02D6DE209958C0144275527BA014C19BB
:104770005D096E097F09CE012AE00E940D23980190
:10478000280F391F04C02AE00E940D239C01C90193
:10479000DF91CF911F910F91FF90EF90DF90CF901D
:1047A00008950E94F12208957F928F929F92AF9276
:1047B000BF92CF92DF92EF92FF920F931F93CF930E
:1047C000DF934C017A018B01722ECB01BA01A80153
:1047D00097010E946D29882321F0C4016CE973E0E0
:1047E00021C0C0E0D0E057016801E894D7F8C601C5
:1047F000B5012FEF3FEF4FE75FE70E946D29882358
:1048000051F4C601B5012FEF3FEF4FE75FE70E947C
:10481000B727181614F0C1E0D0E0219739F0C40191
:1048200060EA73E00E94F122EC0193C0C801B70175
:104830002FEF3FEF4FE75FE40E940629181654F070
:10484000C801B7012FEF3FEF4FE75FEC0E94B7279A
:10485000882324F4C40164EA73E0E4CFC801B701FB
:1048600020E030E040E050E00E94B72787FD03C021
:10487000C0E0D0E00EC0D401ED91FC910190F08138
:10488000E02DC4016DE20995EC0117FB109517F9B5
:10489000109520E030E040E05FE3DD240BC0CA016A
:1048A000B90120E030E040E251E40E94BB279B01C7
:1048B000AC01D394D71498F3C801B7010E945327D1
:1048C0005B016C010E9428287B018C01C401B801A6
:1048D000A7012AE030E00E947123C80FD91F77207A
:1048E00039F0C40168EA73E00E94F122C80FD91FB1
:1048F000C801B7010E9454289B01AC01C601B50153
:104900000E94522724C020E030E040E251E40E949F
:104910000A297B018C010E9423285B016C01CC24B5
:10492000B7FCC094DC2CC401B601A5012AE030E03C
:104930000E949123C80FD91FC601B5010E945628B5
:104940009B01AC01C801B7010E9452277A947720DD
:10495000D1F6CE01DF91CF911F910F91FF90EF9093
:10496000DF90CF90BF90AF909F908F907F900895F1
:104970000E94D4230895EF92FF920F931F937C011E
:104980000E94D4238C01C7010E94D122080F191F55
:10499000C8011F910F91FF90EF9008951F920F9201
:1049A0000FB60F9211242F933F938F939F93AF9342
:1049B000BF9380919E0790919F07A091A007B0910F
:1049C000A1073091A2070196A11DB11D232F2D5FD4
:1049D0002D3720F02D570196A11DB11D2093A20760
:1049E00080939E0790939F07A093A007B093A10781
:1049F00080919A0790919B07A0919C07B0919D0789
:104A00000196A11DB11D80939A0790939B07A093D7
:104A10009C07B0939D07BF91AF919F918F913F915C
:104A20002F910F900FBE0F901F9018958FB7F8948D
:104A300020919E0730919F074091A0075091A107B8
:104A40008FBFB901CA0108959FB7F89420919A07C2
:104A500030919B0740919C0750919D0786B5A89B7C
:104A600006C08F3F21F02F5F3F4F4F4F5F4F9FBFDB
:104A7000542F432F322F2227280F311D411D511D46
:104A800082E0220F331F441F551F8A95D1F7B901C9
:104A9000CA010895EF92FF920F931F93CF93DF9374
:104AA0007B018C010E942425EB010EC00E9424256D
:104AB0006C1B7D0B685E7340C8F30894E108F10835
:104AC00001091109C851DC4FE114F1040105110578
:104AD00069F7DF91CF911F910F91FF90EF900895AB
:104AE000019739F0880F991F880F991F0297019736
:104AF000F1F70895789484B5826084BD84B58160AF
:104B000084BD85B5826085BD85B5816085BDEEE6D5
:104B1000F0E0808181608083E1E8F0E010828081B4
:104B200082608083808181608083E0E8F0E0808122
:104B300081608083E1EBF0E0808184608083E0EB42
:104B4000F0E0808181608083EAE7F0E0808184602A
:104B50008083808182608083808181608083808186
:104B6000806880831092C10008958093CA030895DD
:104B7000982F8E3008F09E5097708091CA038295CE
:104B8000880F880F807C892B80937C0080917A002D
:104B9000806480937A0080917A0086FDFCCF20911A
:104BA000780040917900942F80E030E0282B392B59
:104BB000C90108951F93CF93DF93182FEB0161E094
:104BC0000E943A26209709F44AC0CF3FD10509F444
:104BD00049C0E12FF0E0E251FE4F84918330C1F0F3
:104BE000843028F4813051F08230B1F50CC0863029
:104BF00019F1873049F1843079F514C084B58068A3
:104C000084BDC7BD33C084B5806284BDC8BD2EC01D
:104C100080918000806880938000D0938900C09349
:104C2000880024C080918000806280938000D093AF
:104C30008B00C0938A001AC08091B0008068809376
:104C4000B000C093B30012C08091B0008062809326
:104C5000B000C093B4000AC0C038D1051CF4812F45
:104C600060E002C0812F61E00E94A626DF91CF9113
:104C70001F910895CF93DF93482F50E0CA018652C9
:104C80009E4FFC0134914A535E4FFA018491882370
:104C900069F190E0880F991FFC01E855FE4FA5913E
:104CA000B491FC01EE54FE4FC591D491662351F4AA
:104CB0002FB7F8948C91932F909589238C938881AA
:104CC00089230BC0623061F42FB7F8948C91932F35
:104CD000909589238C938881832B88832FBF06C06E
:104CE0009FB7F8948C91832B8C939FBFDF91CF91CA
:104CF0000895833071F0843028F48130A1F082303F
:104D000021F514C08630B1F08730D1F08430E9F459
:104D100004C0809180008F7703C0809180008F7DD8
:104D200080938000089584B58F7702C084B58F7D0D
:104D300084BD08958091B0008F778093B00008956E
:104D40008091B0008F7D8093B0000895FF920F9303
:104D50001F93F62E482F50E0CA0182519E4FFC014E
:104D60002491CA0186529E4FFC0114914A535E4F12
:104D7000FA0104910023C9F0222319F0822F0E9426
:104D80007926E02FF0E0EE0FFF1FEE54FE4FA591C5
:104D9000B4919FB7F894FF2021F48C911095812352
:104DA00002C08C91812B8C939FBF1F910F91FF901C
:104DB00008950F931F93482F50E0CA0182519E4FD0
:104DC000FC012491CA0186529E4FFC0104914A5372
:104DD0005E4FFA011491112319F420E030E015C060
:104DE000222319F0822F0E947926812F90E0880FCC
:104DF000991F84549E4FFC01A591B4918C9120E0A1
:104E000030E0802311F021E030E0C9011F910F91C3
:104E100008952F923F924F925F926F927F928F925E
:104E20009F92AF92BF92CF92DF92EF92FF920F9339
:104E30001F93DF93CF93CDB7DEB73B014C01190130
:104E40002A016D897E898F89988D6A197B098C0961
:104E50009D09621A730A840A950AA40193010E94AB
:104E60007129E218F30804091509A80197010E94A5
:104E7000D1292A0D3B1D4C1D5D1DB901CA01CF91E1
:104E8000DF911F910F91FF90EF90DF90CF90BF9037
:104E9000AF909F908F907F906F905F904F903F90DA
:104EA0002F9008955058BB27AA270ED075C166D100
:104EB00030F06BD120F031F49F3F11F41EF45BC150
:104EC0000EF4E095E7FB51C1E92F77D180F3BA17D3
:104ED000620773078407950718F071F49EF58FC178
:104EE0000EF4E0950B2EBA2FA02D0B01B901900105
:104EF0000C01CA01A0011124FF27591B99F0593F49
:104F000050F4503E68F11A16F040A22F232F342F90
:104F10004427585FF3CF469537952795A795F040DE
:104F20005395C9F77EF41F16BA0B620B730B840BF3
:104F3000BAF09150A1F0FF0FBB1F661F771F881FAB
:104F4000C2F70EC0BA0F621F731F841F48F4879503
:104F500077956795B795F7959E3F08F0B3CF9395F2
:104F6000880F08F09927EE0F979587950895D9D067
:104F700008F481E008950CD00FC107D140F0FED0B5
:104F800030F021F45F3F19F0F0C0511139C1F3C086
:104F900014D198F39923C9F35523B1F3951B550BFD
:104FA000BB27AA2762177307840738F09F5F5F4FFC
:104FB000220F331F441FAA1FA9F333D00E2E3AF03D
:104FC000E0E830D091505040E695001CCAF729D057
:104FD000FE2F27D0660F771F881FBB1F26173707A6
:104FE0004807AB07B0E809F0BB0B802DBF01FF27D6
:104FF00093585F4F2AF09E3F510568F0B6C000C13C
:105000005F3FECF3983EDCF3869577956795B7950F
:10501000F7959F5FC9F7880F911D9695879597F92A
:105020000895E1E0660F771F881FBB1F62177307A3
:105030008407BA0720F0621B730B840BBA0BEE1FB8
:1050400088F7E095089504D06894B111D9C0089507
:10505000BCD088F09F5790F0B92F9927B751A0F096
:10506000D1F0660F771F881F991F1AF0BA95C9F7FC
:1050700012C0B13081F0C3D0B1E00895C0C0672F35
:10508000782F8827B85F39F0B93FCCF386957795AC
:105090006795B395D9F73EF4909580957095619595
:1050A0007F4F8F4F9F4F0895E89409C097FB3EF4C0
:1050B00090958095709561957F4F8F4F9F4F992365
:1050C000A9F0F92F96E9BB279395F69587957795E3
:1050D0006795B795F111F8CFFAF4BB0F11F460FFA3
:1050E0001BC06F5F7F4F8F4F9F4F16C0882311F0FB
:1050F00096E911C0772321F09EE8872F762F05C00F
:10510000662371F096E8862F70E060E02AF09A95A9
:10511000660F771F881FDAF7880F9695879597F99E
:105120000895990F0008550FAA0BE0E8FEEF161638
:105130001706E807F907C0F012161306E407F5078B
:1051400098F0621B730B840B950B39F40A2661F0FF
:10515000232B242B252B21F408950A2609F4A140A2
:10516000A6958FEF811D811D089597F99F6780E8AF
:1051700070E060E008959FEF80EC089500240A94A9
:105180001616170618060906089500240A94121622
:105190001306140605060895092E0394000C11F455
:1051A000882352F0BB0F40F4BF2B11F460FF04C002
:1051B0006F5F7F4F8F4F9F4F089557FD9058440F5B
:1051C000551F59F05F3F71F04795880F97FB991F66
:1051D00061F09F3F79F08795089512161306140623
:1051E000551FF2CF4695F1DF08C0161617061806B0
:1051F000991FF1CF86957105610508940895E8948B
:10520000BB2766277727CB0197F908958ADF08F433
:105210008FEF08950BD0C0CFB1DF28F0B6DF18F0C4
:10522000952309F0A2CFA7CF1124EACFC6DFA0F3C0
:10523000959FD1F3950F50E0551F629FF001729F2B
:10524000BB27F00DB11D639FAA27F00DB11DAA1F4A
:10525000649F6627B00DA11D661F829F2227B00D97
:10526000A11D621F739FB00DA11D621F839FA00D22
:10527000611D221F749F3327A00D611D231F849F72
:10528000600D211D822F762F6A2F11249F575040C9
:105290008AF0E1F088234AF0EE0FFF1FBB1F661F64
:1052A000771F881F91505040A9F79E3F510570F01D
:1052B0005CCFA6CF5F3FECF3983EDCF38695779505
:1052C0006795B795F795E7959F5FC1F7FE2B880F18
:1052D000911D9695879597F9089523DF880B990B73
:1052E0000895629FD001739FF001829FE00DF11D30
:1052F000649FE00DF11D929FF00D839FF00D749F50
:10530000F00D659FF00D9927729FB00DE11DF91FFB
:10531000639FB00DE11DF91FBD01CF011124089558
:10532000991B79E004C0991F961708F0961B881FF7
:105330007A95C9F78095089597FB092E07260AD01C
:1053400077FD04D049D006D000201AF470956195FD
:105350007F4F0895F6F7909581959F4F0895A1E2AC
:105360001A2EAA1BBB1BFD010DC0AA1FBB1FEE1FDF
:10537000FF1FA217B307E407F50720F0A21BB30B2A
:10538000E40BF50B661F771F881F991F1A9469F7A6
:1053900060957095809590959B01AC01BD01CF0102
:1053A000089597FB092E05260ED057FD04D0D7DFB0
:1053B0000AD0001C38F450954095309521953F4F08
:1053C0004F4F5F4F0895F6F79095809570956195D2
:1053D0007F4F8F4F9F4F0895AA1BBB1B51E107C002
:1053E000AA1FBB1FA617B70710F0A61BB70B881F75
:1053F000991F5A95A9F780959095BC01CD01089504
:10540000EE0FFF1F0590F491E02D099491110DC04E
:105410008F3711F08052D8F70895911106C080326D
:1054200019F089508550D0F7089599278827089555
:105430002F923F924F925F926F927F928F929F92A4
:10544000AF92BF92CF92DF92EF92FF920F931F9392
:10545000CF93DF93CDB7DEB7CA1BDB0B0FB6F89443
:10546000DEBF0FBECDBF09942A88398848885F8483
:105470006E847D848C849B84AA84B984C884DF80F4
:10548000EE80FD800C811B81AA81B981CE0FD11DD8
:105490000FB6F894DEBF0FBECDBFED010895F894AE
:0254A000FFCF3C
:1054A200253032643A253032643A253032642D0098
:1054B2002530366C64203A2573203A2573000A4C55
:1054C200697374206F66204974656D73206C6F6711
:1054D200676564203A000A25733A25303264200059
:1054E200535444004552520044424700574152002F
:1054F2000A636D643A000A4C697374206F66206314
:105502006F6D6D616E64733A0025313573002D2025
:10551200000D0A257300426164206F7074696F6E1A
:105522002873290041303A0041313A0030003100FD
:105532000D0A537461727420676C6F62616C206C27
:105542006F67000D0A53746F7020676C6F62616C35
:10555200206C6F670025640076616C766520736548
:105562007420746F202564250A0074797065207395
:105572006572766F205B616E676C655D0066616E59
:105582002073657420746F202564250A0074797075
:10559200652066616E205B302D3235355D00556EBB
:1055A200646566696E6564206361736520696E2057
:1055B2006D6F6E69746F72206D6F64756C650A0031
:1055C2000A42616420636F6D6D616E64003F005436
:1055D2007970652068656C70205B636F6D6D616EBC
:1055E200645D006C00537461727420676C6F626159
:1055F2006C206C6F67004C0053746F7020676C6F87
:1056020062616C206C6F670068656C700072657611
:105612006973696F6E005072696E742074686520D8
:10562200736F667477617265207265766973696FEC
:105632006E007365746C6F670053657420697465DE
:105642006D20746F206C6F670A0D54797065203A73
:105652007365746C6F67205B6974656D20746F206D
:105662006C6F675D205B302D315D00736572766F04
:105672000053657420736572766F20706F7369745E
:10568200696F6E0A0D547970653A20736572766F90
:10569200205B302D3130305D0066616E00536574E1
:1056A2002066616E20766F6C746167650A0D5479AD
:1056B20070653A2066616E205B302D3235355D00B3
:1056C2006C6973746C6F67005072696E74206974D0
:1056D200656D73206C6F6720616E6420697473203E
:1056E200737461747573007072696E7400507269BC
:1056F2006E742041302C41310074696D65722065F1
:105702006C6170736564200049723A25640A005521
:105712006E6B6E6F776E20656E636F64696E673A4B
:105722000A0066696C742E207074313030303A0091
:1057320066696C742E206C6D33353A006E616E00B2
:10574200696E66006F7666002E000200400100005E
:1057520001440101000148010200014C0103000162
:1057620000000400009704780006012D0200002FBB
:105772000243020400450256020500580268020074
:10578200002F026D0201007602920203009902CB01
:10579200020600D102F9020700FD022003020028DE
:1057A20003470308004D0300000900000000000049
:1057B200000A1E00000000D7217C226D219E217E5E
:0457C20021C72100DA
:00000001FF
